:4000000000800020110000003D0600003D06000008B5044B1A6803F53F5302331A6000F02DFB00BFFA46004010B5054C237833B9044B13B10448AFF300800123237010BDC9
:400040008881FF1F00000000AC160000084B10B51BB108480849AFF300800848036803B910BD074B002BFBD0BDE81040184700BF00000000AC1600008C81FF1F0881FF1FBD
:400080000000000030B585B062B6002301930293ADF80C3000F0D8FC40F6B83000F072FC00F0FEFC1B4800F0E9FC00F0EFF8002828DB194800F0E2FC4FF6FF7500244FF42E
:4000C0007A7000F05FFC0134A4B2013DADB2134800F0D4FC69238DF80430230A8DF805308DF8064064238DF807302B0A8DF808308DF8095001A8062100F05EFA084800F026
:40010000BDFCDCE7074800F0B9FC4FF0FF3005B030BD00BFB0160000EC1600000417000014170000CC16000008B500F059FD002008BD00BFF8B505460E460024224600E031
:400140003A463388934234D01B4BB3F804349BB2002BF9D0571CBFB2174BB3F8021489B2595CA954B3F802349BB20133B3F5806F05DC114BB3F8023401339BB200E0002352
:400180000D4AA2F80234B2F80434013B9BB2A2F80434012F08D93CB9B81E28440749022200F086FE00B90124002CC9D037800020F8BD6FF00200F8BDB885FF1F1C170000D8
:4001C000E2B12DE9F04116460C460746104600F067FE0546A046844213D3002407E0381931462A4600F064FE70B10134A4B2C5EB08039C42F3D90020BDE8F0814FF0FF3058
:4002000070470020BDE8F0810120BDE8F08100BFF0B5ADF20C4D06460F4601A800214FF4806200F010FE4FF48063ADF8063401A80DF20641FFF77EFF054618B10E4800F0EF
:400240001DFC15E0BDF8064401A821463246FFF7B7FF01280BD001A821463A46FFF7B0FF0128E0D1054800F009FC4FF0FF3528460DF20C4DF0BD00BF2017000038170000BD
:4002800008B5C9B200F0BEFC002008BDF8B5A64B0022A3F80024A3F80224A3F8042400F063FC00F06FFC00F0C1FC02229F4B1A6000F072FD00F064FD9D4800F0DFFB9D4C4D
:4002C0009D4B1B6823801B0CA370204600F0E8FD22189A4B19889B78215293702046FFF723FF97489749FFF793FF002805DA964800F0C4FB4FF0FF30F8BD944800F0BEFB31
:400300008C4C934A234607CA03C323F8022B120C1A70204600F0C4FD8E4B1B882352204600F0BEFD2218854B19889B78215293702046FFF7F9FE82488249FFF769FF00285D
:4003400005DA854800F09AFB4FF0FF30F8BD834800F094FB774C824A234607CA03C323F8022B120C1A70204600F09AFD794B1D882552204600F094FD7A4B1B882352204669
:4003800000F08EFD2552204600F08AFD22186B4B19889B78215293702046FFF7C5FE68486849FFF735FF002805DA6F4800F066FB4FF0FF30F8BD6D4800F060FB5D4C6C4A19
:4003C000234607CA03C31A80204600F069FD05462218684B03CB6051516019889B7811819372204600F05CFD5E4B1B882352204600F056FD074626185F4D0FCDE0517160C6
:40040000B260F360204600F04BFD22184B4B19889B78215293702046FFF786FE57484949FFF7F6FE002805DA554800F027FB4FF0FF30F8BD534800F021FB53485349FFF717
:40044000E7FE002805DA4E4800F018FB4FF0FF30F8BD4F4800F012FB39484C49FFF7D8FE002805DA464800F009FB4FF0FF30F8BD484800F003FB484800F000FB2D4C474BAE
:4004800025460FCB07C52B70204600F009FD02462118434B1868A0509B888B80204600F0FFFC304B1F882752204600F0F9FC864626183C4D0FCD44F80E007160B260F36061
:4004C000204600F0EDFC2752204600F0E9FC02462118354B1868A0501B790B71204600F0DFFC2218154B19889B78215293702046FFF71AFE2D481349FFF78AFE002805DAC9
:400500002B4800F0BBFA4FF0FF30F8BD0C482949FFF77EFE002805DA254800F0AFFA4FF0FF30F8BD0020F8BDB885FF1F00E100E060170000A481FF1F701700001C170000B3
:4005400074170000781700008017000094170000A4170000B0170000B4170000CC170000DC170000E8170000EC1700000418000014180000201800002C1800003C180000E2
:400580004C18000060180000801800008C1800009C180000B8180000D8180000EC180000FC1800000419000014190000941800001C1900003419000070B582B006460C462A
:4005C000154D164B009328461549164A234600F043FC2846FFF7A8FD13481449FFF718FE002805DA124800F049FA4FF0FF3010E030462146FFF744FE0E480F49FFF708FE63
:40060000002805DA0A4800F039FA4FF0FF3000E0204602B070BD00BFA481FF1F1C1700003C19000044190000741700007817000050190000681900007019000008B500F08A
:40064000CBFB03680C2B00D1FEE7FEE708B5094B1A681044084BC31A802B02DC054B186005E000F0B9FB0C2303604FF0FF32104608BD00BF0C81FF1FE889FF1F08B5104E55
:40068000104D16E029686B68AC68002204E051F8040B43F8040B0432A242F8D1E868002203E0002143F8041B04328242F9D11035013E002EE6D100F095FBFFF7E3FCFEE7AD
:4006C000010000002C1A000008B5124A124B1A60124A136843F40073136000230AE0032B03D80F4A52F8231000E00E490E4A42F8231001332F2BF2D90C4B1A780C4B1A70C4
:40070000094A0C4B1A6000F0BBF800220A4B1A6008BD00BF0004FA050CED00E014ED00E0000000003D0600000080FF1FBC7600400481FF1F08ED00E00081FF1FFEE700BFB2
:40074000F0B40022174611E050F82760F3B226F0FF0608E001EB420511F812406D78A5550132013BDBB2002BF4D10137162FEBD9F0BC7047064B1B78DBB203F00701054A36
:4007800011701B09013213704422034B1A707047CF0100496E5800407658004008B50A46002100F050FB08BD38B51925284B1D801823284A1370023215800232137063221E
:4007C000254B1A801B2202331A70022203F276231A7008224FF040231A70032103F5007319701E4B1B78DBB21D490B701D4B1A8041F25122023B1A8000240CE01A4B1B7858
:4008000003F0010343EA440404F003044FF4F07000F0D2FA013D0DB1032CEFD115B90320FFF78CFF114B4FF480721A8007221A7000220F490A704820023108701A70022202
:40084000033B1A700B4A137843F00703137038BD80400040824000408840004008010049A146004022420040254200400440004006400040A243004008B500F0D9FA08BDD9
:4008800038B572B62D4A137843F00403137000240CE02B4963001A1952000A4423445B00C8589188FFF77AFF0134E4B2072CF0D94FF090402349FFF743FF234A137843F09B
:4008C000020313701032137843F0020313701F4C237843F040032370A2F58632513A137843F0100313701A481A490A22FFF7C4FF19481A490522FFF7BFFF19481949082275
:40090000FFF7BAFF184819490822FFF7B5FF184A137843F008031370164D61232B70FFF743FF81232B700122134B1A70FFF722FF124821460E22FFF79FFF38BDE8460040C1
:400940007C1900005C00004803500140A0430040C05100406C040048CB5100407804004812510040800400482251004088040048224300400048004004000840B0430040BC
:4009800001BE704710B5044605E0084B186800F013FAA4F50044B4F5004FF6D8034B586800FB04F000F008FA10BD00BF1081FF1F70B504460E46074B1D681F2802D9002054
:4009C000FFF7DEFF04F01F04103455F8240045F8246070BD08ED00E038B504460D46072902D90020FFF7CCFF1F2C02D90020FFF7C7FF04F01F0000F1604000F564406D0172
:400A0000EDB2057038BD00BF0622054B1A70472210331A70022203F5A8731A70704700BF2764004010B500F0CFF90446054A137843F01003137000F045F8204600F0C8F906
:400A400010BD00BF9765004008B5054B1B7823B9FFF7DAFF0122024B1A70FFF7E3FF08BDA485FF1F034B1B7813F0040FFAD1024B18707047676500404765004038B5074B00
:400A80001B782BB938BDFFF7EDFF0134A4B201E005460024285D0028F5D138BDA485FF1F08B500F091F9064B1A7842F001021A701A7802F0FE021A7000F08AF908BD00BF80
:400AC00097650040054A137843F0010313701032137843F001031370704700BFA243004008B501200C49FFF763FF01200721FFF773FF0022094B1A707222094B1A70202214
:400B000001331A7006229D331A70472210331A70022251331A7008BD510C0000A685FF1F8664004010B500F04FF904460B4A137843F0200313700132137843F010031370F1
:400B40000222074B1A60074A137843F01003137000F0C8F8204600F03BF910BD9664004000E100E09565004008B5054B5B7823B9FFF7B6FF0122024B5A70FFF7D3FF08BD76
:400B8000A685FF1F08B500F01FF90B4B1A7842F001021A701A7802F0FE021A7000F018F90221064B1960064B00229A70DA701A715A71044B196008BD9665004080E100E05E
:400BC000A685FF1F00E100E0034B1B7813F0040FFAD1024B18707047656500404565004038B5074B5B782BB938BDFFF7EDFF0134A4B201E005460024285D0028F5D138BD99
:400C0000A685FF1F084B5B7833B97047305DFFF7DBFF0134E4B203E070B50D4606460024AC42F3D370BD00BFA685FF1F08B500F0CBF8064B1A7842F001021A701A7802F030
:400C4000FE021A7000F0C4F808BD00BF956500401C4B1B78DBB213F01E0F05D01A4803F01E0201780A43027003F0200303F0FF022BB3164B1978C9B2154B1B78DBB2154815
:400C8000C154154B1B7813F0FF0F02D00121134B19700F490B780133DBB20B700B78DBB21F2B02D900210A4B1970094B1B780C490978DBB28B4202D10121074B1970002AE4
:400CC000C6D1704767640040A685FF1F46650040A985FF1FC089FF1FAA85FF1FAB85FF1FA885FF1F054A137843F0020313701032137843F002031370704700BFA243004016
:400D000008B5154BB3F804349BB2B3F5806F1FD2114BB3F8002492B210490978C9B29954B3F800349BB20133B3F5806F05DA0A4BB3F8003401339BB200E00023064AA2F8B5
:400D40000034B2F8043401339BB2A2F8043408BD0348FFF793FE08BDB885FF1F46650040AC190000014B1B681864704708ED00E04001C0B2014B1870704700BF00E400E00B
:400D80000122014B1A60704700E100E00122014B1A60704780E100E008B5FFF7F7FF0448FFF7E0FF0720FFF7E3FFFFF7E9FF08BD010D0000000000000230800803D000BF2B
:400DC00001380046FCD17047EFF3108072B6704780F31088704700BF014B1868704700BF8081FF1F0E4B70B51E460E4C0025E41AA410A54204D056F8253098470135F8E758
:400E000000F002FE084B094C1E46E41AA4100025A54204D056F8253098470135F8E770BD141A0000141A0000141A00001C1A000010B5431E0A44914204D011F8014B03F835
:400E4000014FF8E710BD03460244934202D003F8011BFAE7704700000EB400B54FF402719CB0ADF814106FF00041049107914FF6FF711DABADF81610084953F8042B0290DD
:400E80000690086802A9019300F084F8029B00221A701CB05DF804EB03B070478081FF1F034613F8012B002AFBD1181A0138704770B5A2B1451E01396B7811F8014F6E1C2C
:400EC000A34206D16FF00104641B1444E04202D11C46181B70BD3546002BEDD1F8E7104670BD2DE9F0478E688246B3420C469046994640D38A8912F4906F3AD02568096943
:400F000002236F1A656905EB450595FBF3F57B1C4B449D4238BF1D4653050FD5294600F02FFB064698B121693A46FFF781FFA38923F4906343F08003A38113E02A4600F0E7
:400F400075FB064670B95046216900F0D5FA0C23CAF80030A3894FF0FF3043F04003A381BDE8F08726613E4426604E466561ED1BA560B14500D24E4632462068414600F073
:400F80009FFAA36800209B1BA36023681E442660BDE8F0872DE9F0439DB003938B8906461C060D4690460CD50B6953B9402100F0E7FA2860286110B90C233360CCE0402310
:400FC0006B610023099320238DF8293030238DF82A3043461C4613F8012B1AB9B4EB08090FD002E0252AF5D1F8E73046294642464B46FFF776FF013000F0A980099B4B44D3
:4010000009932378002B00F0A28000234FF0FF3204930793059206938DF853301A9304F101084446DFF8489121784846052200F039FA08F10108049B30B1C9EB0000012291
:40104000824013430493ECE7D80644BF20228DF85320190744BF2B228DF8532022782A2A02D0079923460EE0039A0134111D12680391002ABBBF524243F002030792079204
:40108000B8BF04930AE01C4622780133303A092A03D80A2000FB0121F5E7079123782E2B1AD163782A2B0AD1039B02341A1D1B680392002BB8BF4FF0FF3305930CE0611CB4
:4010C00000220C4623780131303B092B03D80A2000FB0232F5E70592DFF8988021784046032200F0DFF938B1049AC8EB00004023834013430493013421781A48062204F1D4
:4011000001088DF8281000F0CDF988B1164B33B9039B073323F007030833039313E003AB0093304604A92A46104BAFF3008007E003AB0093304604A92A460C4B00F092F817
:40114000421C074603D0099B3B44099341E7AB895B0601D4099801E04FF0FF301DB0BDE8F08300BFDC19000000000000E30E0000D2190000D81900002DE9F84391461F46BD
:401180008A680B6906469342B8BF1346C9F8003091F843200C46DDF8208012B10133C9F800302368990642BFD9F800300233C9F80030256815F006051CD094F843302268E8
:4011C000003318BF012392061FD5E118302081F843005A1C94F845102244023382F8431013E03046394604F119020123C047013007D00135E368D9F800209B1A9D42F0DB75
:40120000DBE74FF0FF30BDE8F8833046394604F14302C0470130F4D02268D9F80050E36802F00602042A08BF5D1B2269A3680CBF25EAE57500259342C4BF9B1AED184FF096
:401240000009A9450ADA3046394604F11A020123C0470130D5D009F10109F2E70020BDE8F88300002DE9FF410C461746227E98466E2A06460A9B01F1430100F0B08012D823
:40128000632A23D00AD8002A00F0BD80582A40F0CC8084F84520DFF804E257E0642A1ED0692A1CD0C1E0732A00F0B18009D86F2A2ED0702A40F0B980226842F0200222606D
:4012C0003FE0752A24D0782A3BD0AEE01A6804F14205111D1960136884F84230A9E020681A6810F0800F02D0101D186008E010F0400F02F10400186002D0B2F9003000E067
:401300001368002B3EDA2D225B4284F8432039E020681A6810F0800F02D0101D186007E010F0400F02F10400186001D0138800E01368227EDFF864E16F2A0CBF08220A2219
:401340001CE07822DFF858E184F845202268186812F0800F00F104051D6003D1550601D5038800E00368D00744BF42F0200222601BB9226822F0200222601022002084F867
:40138000430002E0DFF814E10A226568002DA8BF2068A560A4BF20F00400206003B965B10D46B3FBF2F002FB10331EF8033005F8013D03460028F4D100E00D46082A0BD13B
:4013C0002368DA0708D5236962689A42DEBF302305F8013C05F1FF35491B21612EE025681A6815F0800F606903D0151D1D60136808E015F0400F02F104051D60136801D0C0
:40140000188000E01860002323610D4616E01A68111D1960156800212846626800F042F808B1401B6060636804E004F1420584F8422001232361002384F84330CDF8008007
:401440003046214603AA3B46FFF796FE013002D14FF0FF301FE0304639462A462369C0470130F5D023689B0705D4E068039B9842B8BF18460FE00025E368039A9B1A9D424D
:40148000F3DA3046394604F119020123C0470130DED00135F0E704B0BDE8F081E3190000F419000010B5C9B202449042034605D01C7801308C42F8D1184610BD002010BD86
:4014C000814210B501EB020301D3421E0BE09842FBD28118D21AD34204D013F8014D01F8014DF8E710BD994204D011F8014B02F8014FF8E710BD000030B500293CD051F896
:40150000042C0B1F1D49002AB8BF9B180A680C4612B95A600B6030BD93420DD219685818904201BF5A5852181A60426823605A6030BD994203D80A4651680029F9D1146827
:4015400015199D420AD11B682344D0188842136012D10868034413604B680CE002D90C23036030BD1C681819884201BF08684968001918605960536030BD00BFB485FF1F0E
:4015800070B5CC1C24F0030408340C2C38BF0C24002C064603DA0C233360002070BD8C42F9D3204A136810461946A1B10A68121B0ED40B2A03D90A608B188C501FE08B4237
:4015C0000BBF5A684A6802605A6018BF0B4616E00B464968E9E7144D2B681BB9304600F04BF828603046214600F046F8421C0346D1D0C51C25F0030585420AD11C6003F145
:401600000B001A1D20F00700821A0AD05142995070BD3046E91A00F02FF80130BBD02B46ECE770BDB485FF1FB085FF1FF8B5074615460E4621B91146BDE8F840FFF7A0BFBF
:401640001AB9FFF759FF2846F8BD00F025F8A8420ED238462946FFF793FF044650B131462A46FFF7E5FB38463146FFF745FF01E03046F8BD2046F8BD38B5064C00230546CF
:4016800008462360FEF7E2FF431C02D1236803B12B6038BDE089FF1F51F8040C0028BEBF091851F8043CC01804387047000000000A496E697469616C697A696E67204553EB
:4016C00050383236362E2E2E000000000A4553503832363620496E697469616C697A6174696F6E204661696C656421000A4553503832363620496E697469616C697A6564A6
:40170000210000000A53656E64696E672E2E2E21000000000A53656E742100000D0A00000A5B574946496465765D2052656164204572726F720000000A5B574946496465DC
:40174000765D205265637664203A20204E6567617469766520526573706F6E73650000000A434D44202D2041542E2E2E00000000415400004F4B00004552524F5200000023
:401780000A434D44202D204154202D204641494C454400000A434D44202D204D4F44452E2E2E000041542B43574D4F44453D0000310000000A434D44202D204D4F444520C0
:4017C0002D204641494C4544000000000A434D44202D20444843502E2E2E000041542B4357444843503D00002C0000000A434D44202D2044484350203A204641494C454498
:40180000000000000A434D44202D204A41502E2E2E00000041542B43574A41503D00000022526168756C52616A22000022616C6368656D6973744039363922005749464914
:4018400020434F4E4E454354454400000A434D44202D204A4150203A204641494C4544000A434D44202D204A4150203A20436F6E6E656374656420746F2041500000000089
:401880005749464920474F54204950005749464920444953434F4E4E454354000A434D44202D204A4150203A204163717569726564204950000000000A434D44202D204AE1
:4018C0004150203A20436F6E6E656374696F6E20537461626C6500000A434D44202D20495053544152542E2E2E00000041542B43495053544152543D0000000022544350E6
:4019000022000000223139322E3136382E3130302E35220031303234000000000A434D44202D2049505354415254203A204641494C454400434C4F53454400002573256483
:401940002573000041542B43495053454E443D000A434D44202D2053454E44203A204641494C45440000000053454E44204F4B0053454E44204641494C000000005100405D
:401980001000305100404000F0510040100000000140001000140140000800400140000A004C014000020050014020005B574946494445565F4348414E4E454C5D20427517
:4019C00066666572204F766572666C6F770000004300232D302B2000686C4C006566674546470030313233343536373839414243444546003031323334353637383961622C
:401A00006364656600000000F8B500BFF8BC08BC9E4670474D000000C9060000F8B500BFF8BC08BC9E46704729000000401A00000881FF1F800000006008000000000000E8
:401A400000000000E889FF1F0000E02EC05D00001800000000366E010000000000000000000000000000000000000000000000000000000000000000D01900000000000006
:401A800000000000000000000000000000000000000000000000000000000000000000000000000000000000000000000000000000000000000000002081FF1F0000000067
:401AC00000000000000000000000000000000000000000000000000000000000000000000000000000000000000000000000000000000000000000000000000000000000E6
:401B000000000000000000000000000000000000000000000000000000000000000000000000000000000000000000000000000000000000000000000000000000000000A5
:401B40000000000000000000000000000000000000000000000000000000000000000000000000000000000000000000000000000000000000000000000000000000000065
:401B80000000000000000000000000000000000000000000000000000000000000000000000000000000000000000000000000000000000000000000000000000000000025
:020000040003F7
:0200000480007A
:4000000004520040026400400265004001030140020501405006014032070140010B01406E140140421501406316014045170140011B014003400140034101400642014051
:4000400004430140024501400246014005480140034D01400450014001510140100211026184644886728738850F870F82019E01E002001F01100260040C050808730918BA
:400080000A0C0C7F0FE3113C122313C2140215E71718180319441C1C1D1C1E631FE1200821FF240425C0280129802F04302C311F3240340F3538361037C038083A223B0A65
:4000C0003E4056025713580459045B045C115D105F01900297019B01AA01B002B601B701BE01BF40C006C504C9FFCA07CBFFCC40CD20CEF0CF05D008D418D604D804D9044A
:40010000DA04DB04DC01DD10DF01E040E1A8E240E32004400511062007400B400E561320172A19801B011C101D111E0122802520260D2701280429102A102D822E1431204F
:4001400033083404360137603E6A481450085B015E01600462816D406F14762A770A9B209E01AB20C0F0C2F8C472CAF0CCF6CEF0D204D681D80DE00200130140020C0560D5
:4001800009140D090F10130314031604172019101A081C0A1D101E141F0C21602413250C260427112820291C2A052B02300F311F34303560382039203A023F1040024504F1
:4001C00049FF4A074BFF4C404D204EF04F055008580459045A045C105D015F01604061A86240632081408503878488408A038C218E16941C962397959A089DB39E1C9F0C44
:40020000A308A5B3A704A821A92AAA0EAB84B180B20FB330B41AB540B660B70FB880B908BA28BB80BF15C046C102C50CC6B0C7E0C829C9FFCAFFCBFFCEF0CF44D00CD401AA
:40024000D804D904DA04DB04DC11DD11DF01E6C0EA40EB020102060407010A040B210C200E1210081104160819131A041E121F6820082102234024402680271929012B2834
:400280002E082F683028310232803688390C3A103B813C023D013F0443104608470148204E084F04520C540156105C405D215F0865206704800490089108932197409D11FA
:4002C000A008A404C0C8C2E7C446CAE7CC5FCECFD0A4D220D6F0E40104E70B011444162A18021A1524E728212A4A2C802F01308032603407350136183E403F1040344106E4
:4003000042024401460E470C481449FF4AFF4BFF4C624DA04EF04F41500C580459045A045C015D015F016640670269106A306B106D106E106F12812C831384208511870E34
:4003400088108B108C408E03901C92029409961097139C109E0CA014A111A326A708A80CAA11AB2CB01FB110B220B32AB440B70FBB88BE14BF01C046C103C5EEC6CBC80F93
:40038000C9FFCAFFCBFFCEF0CF44D00CD401D804D904DA04DB04DF01E6C0EA40EB02006001080204071008880A800E141080131015401724184819041D821E542104224033
:4003C00023912404288829112A042C102E802F103008382039083B013C104080410445A246104808490A4E085090531056805708581059065B809010914094049654974068
:400400009A109B34A018A120A208A404A708A840A902AA04AF01C027C26DC4EACA17CC02CE27D0F3D224D60FE40133103710CC3083109F10E220078053808720C020D4204E
:40044000E0409F20A780AB80E8805F80D60487809F8027209F20AF80C880EE1070048004DC0100030A0310031A03000F840048848400840000000000000000000400000009
:40048000000B0B0000000000000202000200000000000000000000000000000000000000000000000000000000000000000000000000000000000000000000000000000020
:4004C00000000000000000000000000000000000000000000000000000000000000000000000000000000000000000000000000000000000000000000000000000000000FC
:4005000000000000000000000000000000000000000000000000000000000000000000000000000000000000000000000000000000000000000000000000000000000000BB
:40054000000000000000000000000000000000000000000000000000000000000000000000000000000000000000000000000000000000000000000000000000000000007B
:40058000000000000000000000000000000000000000000000000000000000000000000000000000000000000000000000000000000000000000000000000000000000003B
:0200000490006A
:0400000000004005B7
:0200000490105A
:04000000BC90ACAF55
:0200000490303A
:02000000BC88BA
:0200000490402A
:4000000000000000000000000000000000000000000000000000000000000000000000000000000000000000000000000000000000000000000000000000000000000000C0
:400040000000000000000000000000000000000000000000000000000000000000000000000000000000000000000000000000000000000000000000000000000000000080
:400080000000000000000000000000000000000000000000000000000000000000000000000000000000000000000000000000000000000000000000000000000000000040
:4000C0000000000000000000000000000000000000000000000000000000000000000000000000000000000000000000000000000000000000000000000000000000000000
:0200000490501A
:0C00000000012E16106900012E20CCF12A
:00000001FF